:040000006BEF00F0B2
:100008005B82FACF01F0FBCF02F0D9CF03F0DACF51
:1000180004F0F2AC12EF00F014EF00F061EF00F022
:100028009DA819EF00F01BEF00F031EF00F09EA83B
:1000380020EF00F022EF00F031EF00F002D82FEFB0
:1000480000F00500FA6E5950FD6E5A50FE6EF850D9
:10005800FF6EFA50120061EF00F09DAA36EF00F033
:1000680038EF00F04FEF00F09EAA3DEF00F03FEFB1
:1000780000F04FEF00F002D84DEF00F0050000014E
:10008800FA6E9E51FD6E9F51FE6EF850FF6EFA504B
:10009800120061EF00F09DA254EF00F056EF00F05F
:1000A80061EF00F09EA25BEF00F05DEF00F061EF02
:1000B80000F072EC0FF061EF00F004C0DAFF03C04B
:1000C800D9FF02C0FBFF01C0FAFF5B9211009EEF4F
:0200D8000FF027
:100F0000000D0A204170707579657220737572202A
:100F10006C20706F7572204C6F636B206F7520753D
:100F200020706F757220556E6C6F636B000D0A2018
:100F3000556E6C6F636B000D0A204C6F636B000085
:100F40002150800B2A6E21502124306E20AEABEF51
:100F500007F0ADEF07F0AEEF07F030803050D8B4B7
:100F6000B4EF07F0B6EF07F0C9EF07F03028D8A4C8
:100F7000BCEF07F0BEEF07F0C6EF07F0000E1E6EE5
:100F8000000E1F6E000E206E000E216E208ED1EF1F
:100F900007F0000E1E6E000E1F6E000E206E000E7B
:100FA000216E2550800B2A1A255025242F6E24AE41
:100FB000DCEF07F0DEEF07F0DFEF07F02F802F50B8
:100FC000D8B4E5EF07F0E7EF07F0FAEF07F02F28C6
:100FD000D8A4EDEF07F0EFEF07F0F7EF07F0000E02
:100FE000226E000E236E000E246E000E256E248EDF
:100FF00002EF08F0000E226E000E236E000E246E2B
:10100000000E256E2F50D8B408EF08F00AEF08F054
:1010100012EF08F03050D8A410EF08F012EF08F0EB
:101020001CEF08F0000E1E6E000E1F6E000E206EEC
:10103000000E216EB4EF09F024501E02F3CF35F0FC
:10104000F4CF36F035502B6E2C6A2D6A2E6A36504E
:10105000316E326A336A346A23501F02F3CF35F09F
:10106000F4CF36F035502B26000E2C222D222E22C6
:1010700036503126000E32223322342222502002F2
:10108000F3CF35F0F4CF36F035502B26000E2C225E
:101090002D222E2236503126000E322233223422C7
:1010A0002DC02EF02CC02DF02BC02CF02B6A22501E
:1010B0001F02F3CF35F0F4CF36F035502B263650E3
:1010C0002C22000E2D22000E2E2223501E02F3CFC2
:1010D00035F0F4CF36F035502B2636502C22000E4A
:1010E0002D22000E2E222DC02EF02CC02DF02BC054
:1010F0002CF02B6A22501E02F3CF35F0F4CF36F0DD
:1011000035502B2636502C22000E2D22000E2E227A
:1011100024501F02F3CF35F0F4CF36F0355031268E
:1011200036503222000E3322000E34222350200289
:10113000F3CF35F0F4CF36F0355031263650322229
:10114000000E3322000E342224502002F3CF35F05B
:10115000F4CF36F03550266E3650276E286A296A4D
:1011600028C029F027C028F026C027F0266A26507C
:1011700031262750322228503322295034222BC0C6
:1011800026F02CC027F02DC028F02EC029F0190E13
:10119000CFEF08F0D8902932283227322632E82EB5
:1011A000CAEF08F026503126275032222850332229
:1011B000295034222DC02EF02CC02DF02BC02CF045
:1011C0002B6A2F5030C026F0276A2626000E2722D1
:1011D000820E2624356EFF0E2720366E05EF09F0AD
:1011E000D89031363236333634362EAEFAEF08F038
:1011F000FCEF08F0FDEF08F03180D8902B362C364C
:101200002D362E363506D8A0360633AE0AEF09F055
:101210000CEF09F0F0EF08F0000E2F6E2EAE13EF7A
:1012200009F015EF09F039EF09F0FF0E2B14266EC7
:10123000FF0E2C14276EFF0E2D14286E7F0E2E1419
:10124000296E2650271028102910D8B42AEF09F04B
:101250002CEF09F030EF09F0010E2F6E39EF09F095
:1012600031A035EF09F037EF09F039EF09F02CEF35
:1012700009F02F50D8B43FEF09F041EF09F065EFC6
:1012800009F0010E3126000E32223322342234A01E
:101290004CEF09F04EEF09F065EF09F031C026F090
:1012A00032C027F033C028F034C029F02934293265
:1012B00028322732263226C031F027C032F028C02B
:1012C00033F029C034F0354A362A36BE70EF09F0C3
:1012D000365008E13528D8A070EF09F072EF09F018
:1012E0007CEF09F0000E316E000E326E800E336E10
:1012F0007F0E346EAAEF09F036BE89EF09F0365042
:1013000006E13504D8B087EF09F089EF09F095EFD1
:1013100009F0000E316E000E326E000E336E000EBC
:10132000346E000E2A6EAAEF09F035C030F0FF0EC1
:101330003116FF0E32167F0E3316000E341630A013
:10134000A4EF09F0A6EF09F0A7EF09F0338ED890CB
:101350003030346E2A50341231C01EF032C01FF0CB
:1013600033C020F034C021F012000850800B156EFD
:10137000085008241C6E07AEC0EF09F0C2EF09F058
:10138000C3EF09F01C801C50D8B4C9EF09F0CBEFB3
:1013900009F0E0EF09F01C28D8A4D1EF09F0D3EF51
:1013A00009F0DBEF09F0000E056E000E066E000E70
:1013B000076E000E086E078E000E086EE8EF09F04B
:1013C000000E056E000E066E000E076E000E086E13
:1013D0000C50800B151A0C500C241D6E0BAEF3EF45
:1013E00009F0F5EF09F0F6EF09F01D801D50D8B4B3
:1013F000FCEF09F0FEEF09F013EF0AF01D28D8A466
:1014000004EF0AF006EF0AF00EEF0AF0000E096E84
:10141000000E0A6E000E0B6E000E0C6E0B8E000E90
:101420000C6E1BEF0AF0000E096E000E0A6E000E25
:101430000B6E000E0C6E09500A100B100C10D8A485
:1014400024EF0AF026EF0AF03EEF0AF0000E056ED8
:10145000000E066E000E076E000E086E800E07125C
:101460007F0E08121550081205C005F006C006F0E0
:1014700007C007F008C008F081EF0BF01C50D8A49B
:1014800044EF0AF046EF0AF050EF0AF0000E056E46
:10149000000E066E000E076E000E086E81EF0BF058
:1014A0001D501CC00DF00E6A0D5E000E0E5A7F0E10
:1014B0000D24166E000E0E20176E05C011F006C02A
:1014C00012F007C013F008C014F0000E056E000EF5
:1014D000066E000E076E000E086E000E186E000EEF
:1014E000196E000E1A6E000E1B6E000E1D6EB1EF0F
:1014F0000AF01D50D8B47FEF0AF081EF0AF098EFA0
:101500000AF0D8901136123613361436D8900536B4
:101510000636073608361BAE90EF0AF092EF0AF057
:1015200093EF0AF00580D890183619361A361B3614
:101530000950115C0A5012580B5013580C50145893
:10154000D8A0A5EF0AF0A7EF0AF0B0EF0AF01B8CC5
:101550000950115E0A50125A0B50135A0C50145A6B
:101560001D2A190E1D64B7EF0AF0B9EF0AF079EFE2
:101570000AF01150121013101410D8B4C2EF0AF070
:10158000C4EF0AF0DCEF0AF01880DCEF0AF0D89024
:1015900005360636073608361BAED1EF0AF0D3EF14
:1015A0000AF0D4EF0AF00580D890183619361A36AA
:1015B0001B361606D8A0170607AEE1EF0AF0E3EFD8
:1015C0000AF0C7EF0AF0000E1D6E1BAEEAEF0AF03C
:1015D000ECEF0AF010EF0BF0FF0E18140D6EFF0E7B
:1015E00019140E6EFF0E1A140F6E7F0E1B14106E60
:1015F0000D500E100F101010D8B401EF0BF003EFC8
:101600000BF007EF0BF0010E1D6E10EF0BF005A0B5
:101610000CEF0BF00EEF0BF010EF0BF003EF0BF0F5
:101620001D50D8B416EF0BF018EF0BF03CEF0BF099
:10163000010E0526000E06220722082208A023EF2D
:101640000BF025EF0BF03CEF0BF005C00DF006C0E2
:101650000EF007C00FF008C010F0103410320F3237
:101660000E320D320DC005F00EC006F00FC007F0AF
:1016700010C008F0164A172A17BE47EF0BF0175094
:1016800008E11628D8A047EF0BF049EF0BF054EF14
:101690000BF0000E176E1668000E056E000E066E3B
:1016A000000E076E000E086E17BE61EF0BF01750AC
:1016B00006E11604D8B05FEF0BF061EF0BF06FEFAF
:1016C0000BF0000E176E000E166E000E056E000E6B
:1016D000066E000E076E000E086E000E156E16C028
:1016E0001CF01CA076EF0BF078EF0BF07BEF0BF00B
:1016F000078E7CEF0BF0079ED8901C30086E32EFFF
:101700000AF0120041C005F042C006F043C007F0E5
:1017100044C008F0000E096E000E0A6E600E0B6EDB
:10172000400E0C6EBBEC0CF0D8A099EF0BF09BEFC9
:101730000BF014EF0CF0000E056E000E066E380E66
:10174000076E410E086E41C009F042C00AF043C066
:101750000BF044C00CF0BBEC0CF0D8A0B2EF0BF0D7
:10176000B4EF0BF014EF0CF0EE0E226E930E236E1E
:10177000A30E246E3C0E256E000E096E000E0A6E3E
:10178000C80E0B6E420E0C6E41C005F042C006F052
:1017900043C007F044C008F0B5EC09F005C01EF0E6
:1017A00006C01FF007C020F008C021F0A0EC07F031
:1017B0001EC045F01FC046F020C047F021C048F0D1
:1017C000000E226EC00E236E7F0E246E440E256E18
:1017D000BD0E096E370E0A6E060E0B6E3D0E0C6EB8
:1017E00045C005F046C006F047C007F048C008F005
:1017F000B5EC09F005C01EF006C01FF007C020F0D0
:1018000008C021F0A0EC07F01EC037F01FC038F070
:1018100020C039F021C03AF038EC0CF037C041F06C
:1018200038C042F037EF0CF041C005F042C006F07E
:1018300043C007F044C008F0000E096E000E0A6EA7
:10184000600E0B6E400E0C6EBBEC0CF0D8B02BEFA4
:101850000CF02DEF0CF033EF0CF0000E426E150E75
:10186000416E37EF0CF0000E426E470E416E1200D3
:1018700039343A34406E4050D8A441EF0CF043EF75
:101880000CF04DEF0CF0000E376E000E386E000EAF
:10189000396E000E3A6EBAEF0CF037C03BF038C02C
:1018A0003CF039C03DF03AC03EF0200E5DEF0CF048
:1018B000D8903E323D323C323B32E82E58EF0CF0AD
:1018C0003B503F6E398EFF0E3716FF0E3816FF0E57
:1018D0003916000E3A16960E405E40BE74EF0CF0BC
:1018E00072EF0CF08AEF0CF04050800A970FD8B0DE
:1018F0007CEF0CF07EEF0CF080EF0CF043EF0CF07F
:10190000D8903A32393238323732403E80EF0CF0DC
:10191000A2EF0CF01F0E406490EF0CF092EF0CF071
:101920009AEF0CF043EF0CF0D89037363836393652
:101930003A3640064050D8A4A0EF0CF0A2EF0CF0CD
:1019400094EF0CF03F50D8B4A8EF0CF0AAEF0CF0D5
:10195000B2EF0CF03A1E391E381E376C000E3822DA
:1019600039223A2237C037F038C038F039C039F060
:101970003AC03AF01200000E05140D6E000E061467
:101980000E6E800E07140F6E7F0E0814106E0D5031
:101990000E100F101010D8A4D0EF0CF0D2EF0CF0F6
:1019A000DAEF0CF0000E056E000E066E000E076EEC
:1019B000000E086E000E09140D6E000E0A140E6E55
:1019C000800E0B140F6E7F0E0C14106E0D500E1047
:1019D0000F101010D8A4EFEF0CF0F1EF0CF0F9EFAE
:1019E0000CF0000E096E000E0A6E000E0B6E000E5B
:1019F0000C6E08AEFEEF0CF000EF0DF009EF0DF0ED
:101A0000056C061ED8B0062A071ED8B0072A800E1D
:101A100008560CAE0EEF0DF010EF0DF019EF0DF0B3
:101A2000096C0A1ED8B00A2A0B1ED8B00B2A800EE9
:101A30000C56000E051A000E061A000E071A800E2C
:101A4000081A000E091A000E0A1A000E0B1A800E50
:101A50000C1A0950055C0A5006580B5007580C50D8
:101A60000858D8B036EF0DF038EF0DF03BEF0DF021
:101A7000D8903CEF0DF0D880120009500A10D8B46D
:101A800044EF0DF046EF0DF04FEF0DF009500A1046
:101A9000D8A44DEF0DF04FEF0DF054EF0DF00750BF
:101AA000FFEC0FF0A1EF0DF020EE0AF00950D9265F
:101AB0000A50DA22DE50DE10D8B461EF0DF063EF89
:101AC0000DF07EEF0DF020EE0AF00950D9260A50F5
:101AD000DA2210EE03F00950E1260A50E222DE502D
:101AE000E65CE650800A0F6EDE50800A0F58D8B0D0
:101AF0007CEF0DF07EEF0DF0A1EF0DF020EE03F086
:101B00000950D9260A50DA22DECF0BF0DDCF0CF0D7
:101B100009C0D9FF0AC0DAFFDECF0DF0DDCF0EF02D
:101B20000B500D24D96E0C500E20DA6E07C0DFFF6B
:101B300020EE03F00950D9260A50DA22DE2A000EE0
:101B4000DD221200E0EC0FF0F28EF28C000E416EFE
:101B5000000E426EF00E436E400E446E82EC0BF0AF
:101B600041C049F042C04AF036EC0FF0010E196E48
:101B7000D3EC0FF0E6EF0DF0000E416E000E426E5A
:101B8000380E436E410E446E82EC0BF041C049F0BA
:101B900042C04AF036EC0FF0370E196ED3EC0FF05E
:101BA000E6EF0DF0000E416E000E426E600E436EC9
:101BB000400E446E82EC0BF041C049F042C04AF046
:101BC00036EC0FF02D0E196ED3EC0FF0F1EC0EF099
:101BD0000001A26FA36BA351000AD8B4F2EF0DF07D
:101BE000E6EF0DF0A2516C0AD8B4BCEF0DF0190A63
:101BF000D8B4D2EF0DF0E6EF0DF06BEF00F05350DC
:101C0000800FD96EDA6ADF6AABA409EF0EF00BEF32
:101C10000EF01EEF0EF05350800FD96EDA6A0001FD
:101C2000DF8202D81EEF0EF00500FA6E9C51FD6EA9
:101C30009D51FE6EF850FF6EFA501200ABA223EFDA
:101C40000EF025EF0EF038EF0EF05350800FD96EE6
:101C5000DA6A0001DF8402D838EF0EF00500FA6E70
:101C60009A51FD6E9B51FE6EF850FF6EFA501200B5
:101C70005350800FD96EDA6ADF50D8B442EF0EF0BD
:101C800044EF0EF054EF0EF002D852EF0EF00500C4
:101C90000001FA6E9851FD6E9951FE6EF850FF6E7C
:101CA000FA50120056EF0EF0B1EC0FF012009D9AB0
:101CB000FE0E056E1B0E066E0EEC10F09D98A80E23
:101CC000056E1E0E066E09EC10F0080EA76E900E43
:101CD000AB6E240EAC6E0C0EAF6E000E7D6E560E0B
:101CE000056E200E066E18EC10F0440E056E200EE8
:101CF000066E13EC10F04A0E056E200E066E1DECFB
:101D000010F0000E506E000E566E000E556E080E4E
:101D1000546E000E536E000E526E000E516E9D8A70
:101D200012001250D96EDA6ADFCFF6FF0F0EF76E8F
:101D30000800F550250AD8A4A0EF0EF0A2EF0EF08F
:101D4000B4EF0EF01250D96EDA6ADF2A000E4C6E34
:101D5000000E4B6E4BC04FF04D684E681250D96E5E
:101D6000DA6ADF2AC7EF0EF01250D96EDA6ADFCFD7
:101D7000F6FF0F0EF76E0800F550076E086A10C0E8
:101D800009F011C00AF03DEC0DF0AEEF0EF01200BC
:101D9000056E5450D8B4CFEF0EF0D1EF0EF0C9EF6E
:101DA0000EF09DB8D6EF0EF0D8EF0EF0DCEF0EF08F
:101DB00005C0ADFFEFEF0EF09D985650900FD96E15
:101DC000DA6A05C0DFFF562A070E5664EAEF0EF006
:101DD000ECEF0EF0EEEF0EF0000E566E54069D88FE
:101DE00012005150D8B4F7EF0EF0F9EF0EF0F1EF0A
:101DF0000EF05250800FD96EDA6ADF50506E52509A
:101E0000880FD96EDA6ADF50056E522A070E5264C7
:101E10000CEF0FF00EEF0FF010EF0FF0000E526E00
:101E20009D9A51069D8A0550120016C018F023EFA6
:101E30000FF014C010F015C011F0180E126E17C07C
:101E400013F091EC0EF018C0F6FF0F0EF76E0800BD
:101E5000F5500009D8A42FEF0FF031EF0FF019EF74
:101E60000FF0000E156E000E146E120049C0A0F0A7
:101E70004AC0A1F00001D890A133A033D890A1337B
:101E8000A033A0510F01516F49C0A0F0030E000113
:101E9000A017A03BF00EA0170F015051CF0B00016F
:101EA000A0110F01506F1200080E54605AEF0FF08E
:101EB0005CEF0FF070EF0FF05550900FD96EDA6AAB
:101EC000DF50AD6E552A070E556469EF0FF06BEFCA
:101ED0000FF06DEF0FF0000E556E542A71EF0FF0FA
:101EE0009D9812009E9257505810D8B47AEF0FF078
:101EF0007CEF0FF089EF0FF002D889EF0FF00500AB
:101F0000FA6E5750FD6E5850FE6EF850FF6EFA5044
:101F100012001200000E896E000E8A6E000E8B6E8B
:101F2000EF0E926E9368BB0E946E1F0E0F015D6FE5
:101F3000070E5C6F000E5B6FF18E120000EE60F01A
:101F4000380EEE6AE806FDE100EE4BF00C0EEE6A8C
:101F5000E806FDE15B905B92000EF86E0001A2EFD7
:101F60000DF05350880FD96EDA6AAECFDFFF532AD7
:101F7000070E5364BEEF0FF0C0EF0FF0C2EF0FF08B
:101F8000000E536E512A12009B0ECB6E000ECC6ECB
:101F90009E929D82540E056E200E066E04EC10F08B
:101FA000060ECA6E12001A0E1A6E000E146E000E85
:101FB000156E19C016F01A0E176E15EC0FF0120000
:101FC00028EC10F08AEC0FF0F6EC0FF0EDEC0FF0CF
:101FD000C4EC0FF057EC0EF012000C0E0F01506F16
:101FE000000E516F000E526F99921200200ED36EA8
:101FF000000ED26E000E9B6E000E9A6E1200066EE0
:102000000650C8EC0EF0120005C057F006C058F09C
:10201000120005C059F006C05AF0120005C09EF02B
:1020200006C09FF0120005C09AF006C09BF0120097
:1020300005C09CF006C09DF0120005C098F006C0D7
:1020400099F01200AB98AB881200B1EC0FF01200BF
:08205000D09E120012001200E4
:020000040030CA
:0E00000015087F50FF8991FF0FC00FE00F40E1
:00000001FF
